:100000000C943E000C945B000C945B000C945B0021
:100010000C945B000C945B000C945B000C945B00F4
:100020000C945B000C945B000C945B000C945B00E4
:100030000C945B000C945B000C945B000C945B00D4
:100040000C945B000C945B000C945B000C945B00C4
:100050000C945B000C945B000C945B000C945B00B4
:100060000C945B000C945B000C945B000C945B00A4
:100070000C945B000C945B000C945B0011241FBE7D
:10008000CFEFD8E0DEBFCDBF11E0A0E0B1E0E4E506
:10009000F3E002C005900D92A030B107D9F711E04E
:1000A000A0E0B1E001C01D92A430B107E1F70E94C9
:1000B00047010C94A8010C9400001BB81AB88FEFEC
:1000C00087B918B888E291E090930101809300010C
:1000D00086E391E0909303018093020180E090E039
:1000E0000895809100019091010121E080399207EB
:1000F00040F40196909301018093000180E090E02C
:1001000008958FEF9FEF0895809100019091010174
:10011000803C910540F0019790930101809300018C
:1001200080E090E008958FEF9FEF089580910201A5
:100130009091030121E08E3A920740F4019690934A
:1001400003018093020180E090E008958FEF9FEF1C
:1001500008958091020190910301803C910540F047
:100160000196909303018093020180E090E008954E
:100170008FEF9FEF0895479A80E090E008954798A9
:1001800080E090E00895CF93DF9300D00F92CDB739
:10019000DEB7198289B18983898183FF03C00E94F8
:1001A000BB0005C0898183FD02C00E94BF00898118
:1001B0008073803319F40E94710006C089818073B6
:1001C000803211F40E9484008981807C803C19F483
:1001D0000E94960006C08981807C803811F40E94BC
:1001E000A90088EB91E09B838A8388B1836088B9FA
:1001F0008A819B819C01215030403B832A83009758
:1002000051F000008A819B819C01215030403B834A
:100210002A830097B1F78EEA91E09B838A838A81D3
:100220009B819C01215030403B832A830097F1F051
:100230008A819B812091020130910301281739079F
:1002400008F040988A819B81209100013091010142
:100250002817390708F0419800008A819B819C018A
:10026000215030403B832A83009711F788B18C7F5F
:1002700088B980E090E00F900F900F90DF91CF91C0
:1002800008958091000108958091020108950E94CF
:100290009E010E945D008FEF87B918B80E94780117
:1002A0000E94C30085E793E90197F1F700C00000C1
:1002B000F5CF8BE082B985B980E090E0089585E1C3
:1002C00082B985B980E090E008958BE082B985E13C
:1002D00085B980E090E0089585E182B98BE085B929
:1002E00080E090E0089512B815B880E090E008959D
:1002F00089B190E0877090708130910519F40E9467
:10030000590119C08230910519F40E945F0113C090
:100310008330910519F40E9465010DC08430910568
:1003200019F40E946C0107C0009719F40E94730130
:1003300002C00E94730180E090E008951BB81AB8D3
:1003400012B88FE181B915B884B980E090E00895C2
:04035000F894FFCF4F
:00000001FF
