:100000000C943E000C9453000C9453000C94530039
:100010000C9453000C9453000C9453000C94530014
:100020000C9453000C9453000C9453000C94530004
:100030000C9453000C9453000C9453000C945300F4
:100040000C9453000C9453000C9453000C945300E4
:100050000C9453000C9453000C9453000C945300D4
:100060000C9453000C9453000C9453000C945300C4
:100070000C9453000C9453000C94530011241FBE95
:10008000CFEFD8E0DEBFCDBF11E0A0E0B1E0E6E900
:10009000F2E002C005900D92A230B107D9F70E949C
:1000A000F1000C9449010C9400001BB81AB887E0C9
:1000B00087B918B88FE7809301018093000180E031
:1000C00090E00895809101018A3F30F48F5F809322
:1000D000010120E030E002C02FEF3FEF822F932F8D
:1000E000089580910101882331F0815080930101AE
:1000F00020E030E002C02FEF3FEF822F932F0895D2
:10010000809100018A3F30F48F5F8093000120E0EE
:1001100030E002C02FEF3FEF822F932F08958091A0
:100120000001882331F08F5F8093000120E030E0F0
:1001300002C02FEF3FEF822F932F089584E088B9FC
:1001400080E090E0089518B880E090E008951F9353
:1001500016B1107F0E94A300103319F40E946200B0
:100160000AC0103219F40E94710005C0103C19F445
:100170000E94800004C0103811F40E948F0020916A
:10018000000130E04091010150E088B1836088B9FE
:1001900088EE93E000000197E9F710C000C000C0AE
:1001A0002115310539F02150304009F440984115AE
:1001B000510521F04150504009F4419812161306A0
:1001C0003CF01416150654F380E090E01F9108955A
:1001D00000C000C0E8CF8091010108958091000126
:1001E00008950E943F010E9455000E9419010E943B
:1001F000A700FBCF8BE082B985B980E090E008953D
:1002000085E182B985B980E090E008958BE082B9FC
:1002100085E185B980E090E0089585E182B98BE0C1
:1002200085B980E090E0089512B815B880E090E0BC
:10023000089589B190E0877090708130910519F42C
:100240000E94FA0019C08230910519F40E94000141
:1002500013C08330910519F40E9406010DC084304B
:10026000910519F40E940D0107C0009719F40E942E
:10027000140102C00E94140180E090E008951BB8B0
:100280001AB812B88FE181B915B884B980E090E04E
:060290000895F894FFCF71
:020296007F7F68
:00000001FF
