:100000000C943E000C945B000C945B000C945B0021
:100010000C945B000C945B000C945B000C945B00F4
:100020000C945B000C945B000C945B000C945B00E4
:100030000C945B000C945B000C945B000C945B00D4
:100040000C945B000C945B000C945B000C945B00C4
:100050000C945B000C945B000C945B000C945B00B4
:100060000C945B000C945B000C945B000C945B00A4
:100070000C945B000C945B000C945B0011241FBE7D
:10008000CFEFD8E0DEBFCDBF11E0A0E0B1E0EAE6FF
:10009000F3E002C005900D92A230B107D9F711E04C
:1000A000A2E0B1E001C01D92A230B107E1F70E94C9
:1000B00055010C94B3010C9400001BB81AB887E0EA
:1000C00087B918B88DE7809301018093000180E023
:1000D00090E00895809101018A3F40F480910101F0
:1000E0008F5F8093010180E090E008958FEF9FEF94
:1000F000089580910101882341F080910101815090
:100100008093010180E090E008958FEF9FEF0895C4
:10011000809100018A3F40F4809100018F5F8093BD
:10012000000180E090E008958FEF9FEF08958091A7
:100130000001882341F0809100018F5F80930001CE
:1001400080E090E008958FEF9FEF0895479A80E058
:1001500090E00895479880E090E00895CF93DF9372
:10016000CDB7DEB727970FB6F894DEBF0FBECDBF71
:10017000198289B18983898183FF03C00E94A60007
:1001800002C00E94AA0089818073803319F40E9402
:100190006A0006C089818073803211F40E94790060
:1001A0008981807C803C19F40E94880006C0898186
:1001B000807C803811F40E9497008091000190E0CB
:1001C0009B838A838091010190E09D838C831F82B1
:1001D0001E822C813D818A819B81821793074CF47A
:1001E0002C813D818AEF90E0821B930B9F838E834D
:1001F00008C02A813B818AEF90E0821B930B9F838A
:100200008E8388B1836088B988EE93E000000197FF
:10021000E9F71CC000C000C08A819B81009749F0AB
:100220008A819B8101979B838A83009711F488B10F
:1002300018B88C819D81009749F08C819D81019730
:100240009D838C83009711F488B118B88A819B81B3
:1002500018161906FCF28C819D8118161906D4F225
:100260008E819F819C01215030403F832E830097D7
:1002700059F000C000C08E819F819C012150304008
:100280003F832E830097A9F780E090E027960FB672
:10029000F894DEBF0FBECDBFDF91CF91089580915E
:1002A000010108958091000108950E94A9010E9412
:1002B0005D000E9483010E94AE0087E893E10197F0
:1002C000F1F700C00000F5CF8BE082B985B980E07E
:1002D00090E0089585E182B985B980E090E00895C5
:1002E0008BE082B985E185B980E090E0089585E1F1
:1002F00082B98BE085B980E090E0089512B815B816
:1003000080E090E0089589B190E08770907081302E
:10031000910519F40E94640119C08230910519F405
:100320000E946A0113C08330910519F40E94700184
:100330000DC08430910519F40E94770107C0009721
:1003400019F40E947E0102C00E947E0180E090E0CC
:1003500008951BB81AB812B88FE181B915B884B9DD
:0A03600080E090E00895F894FFCFCC
:02036A007F7F93
:00000001FF
